{
  "_format": "hh-sol-artifact-1",
  "contractName": "CSUFCampusNFT",
  "sourceName": "contracts/CSUFCampusNFT.sol",
  "abi": [
    {
      "inputs": [],
      "stateMutability": "nonpayable",
      "type": "constructor"
    },
    {
      "inputs": [
        {
          "internalType": "address",
          "name": "sender",
          "type": "address"
        },
        {
          "internalType": "uint256",
          "name": "tokenId",
          "type": "uint256"
        },
        {
          "internalType": "address",
          "name": "owner",
          "type": "address"
        }
      ],
      "name": "ERC721IncorrectOwner",
      "type": "error"
    },
    {
      "inputs": [
        {
          "internalType": "address",
          "name": "operator",
          "type": "address"
        },
        {
          "internalType": "uint256",
          "name": "tokenId",
          "type": "uint256"
        }
      ],
      "name": "ERC721InsufficientApproval",
      "type": "error"
    },
    {
      "inputs": [
        {
          "internalType": "address",
          "name": "approver",
          "type": "address"
        }
      ],
      "name": "ERC721InvalidApprover",
      "type": "error"
    },
    {
      "inputs": [
        {
          "internalType": "address",
          "name": "operator",
          "type": "address"
        }
      ],
      "name": "ERC721InvalidOperator",
      "type": "error"
    },
    {
      "inputs": [
        {
          "internalType": "address",
          "name": "owner",
          "type": "address"
        }
      ],
      "name": "ERC721InvalidOwner",
      "type": "error"
    },
    {
      "inputs": [
        {
          "internalType": "address",
          "name": "receiver",
          "type": "address"
        }
      ],
      "name": "ERC721InvalidReceiver",
      "type": "error"
    },
    {
      "inputs": [
        {
          "internalType": "address",
          "name": "sender",
          "type": "address"
        }
      ],
      "name": "ERC721InvalidSender",
      "type": "error"
    },
    {
      "inputs": [
        {
          "internalType": "uint256",
          "name": "tokenId",
          "type": "uint256"
        }
      ],
      "name": "ERC721NonexistentToken",
      "type": "error"
    },
    {
      "inputs": [
        {
          "internalType": "address",
          "name": "owner",
          "type": "address"
        }
      ],
      "name": "OwnableInvalidOwner",
      "type": "error"
    },
    {
      "inputs": [
        {
          "internalType": "address",
          "name": "account",
          "type": "address"
        }
      ],
      "name": "OwnableUnauthorizedAccount",
      "type": "error"
    },
    {
      "inputs": [],
      "name": "ReentrancyGuardReentrantCall",
      "type": "error"
    },
    {
      "anonymous": false,
      "inputs": [
        {
          "indexed": true,
          "internalType": "address",
          "name": "owner",
          "type": "address"
        },
        {
          "indexed": true,
          "internalType": "address",
          "name": "approved",
          "type": "address"
        },
        {
          "indexed": true,
          "internalType": "uint256",
          "name": "tokenId",
          "type": "uint256"
        }
      ],
      "name": "Approval",
      "type": "event"
    },
    {
      "anonymous": false,
      "inputs": [
        {
          "indexed": true,
          "internalType": "address",
          "name": "owner",
          "type": "address"
        },
        {
          "indexed": true,
          "internalType": "address",
          "name": "operator",
          "type": "address"
        },
        {
          "indexed": false,
          "internalType": "bool",
          "name": "approved",
          "type": "bool"
        }
      ],
      "name": "ApprovalForAll",
      "type": "event"
    },
    {
      "anonymous": false,
      "inputs": [
        {
          "indexed": true,
          "internalType": "uint256",
          "name": "tokenId",
          "type": "uint256"
        }
      ],
      "name": "AuctionCancelled",
      "type": "event"
    },
    {
      "anonymous": false,
      "inputs": [
        {
          "indexed": true,
          "internalType": "uint256",
          "name": "tokenId",
          "type": "uint256"
        },
        {
          "indexed": true,
          "internalType": "address",
          "name": "winner",
          "type": "address"
        },
        {
          "indexed": false,
          "internalType": "uint256",
          "name": "amount",
          "type": "uint256"
        }
      ],
      "name": "AuctionEnded",
      "type": "event"
    },
    {
      "anonymous": false,
      "inputs": [
        {
          "indexed": true,
          "internalType": "uint256",
          "name": "tokenId",
          "type": "uint256"
        },
        {
          "indexed": true,
          "internalType": "address",
          "name": "seller",
          "type": "address"
        },
        {
          "indexed": false,
          "internalType": "uint256",
          "name": "minBid",
          "type": "uint256"
        },
        {
          "indexed": false,
          "internalType": "uint256",
          "name": "endsAt",
          "type": "uint256"
        }
      ],
      "name": "AuctionStarted",
      "type": "event"
    },
    {
      "anonymous": false,
      "inputs": [
        {
          "indexed": false,
          "internalType": "uint256",
          "name": "_fromTokenId",
          "type": "uint256"
        },
        {
          "indexed": false,
          "internalType": "uint256",
          "name": "_toTokenId",
          "type": "uint256"
        }
      ],
      "name": "BatchMetadataUpdate",
      "type": "event"
    },
    {
      "anonymous": false,
      "inputs": [
        {
          "indexed": true,
          "internalType": "uint256",
          "name": "tokenId",
          "type": "uint256"
        },
        {
          "indexed": true,
          "internalType": "address",
          "name": "bidder",
          "type": "address"
        },
        {
          "indexed": false,
          "internalType": "uint256",
          "name": "amount",
          "type": "uint256"
        }
      ],
      "name": "BidPlaced",
      "type": "event"
    },
    {
      "anonymous": false,
      "inputs": [
        {
          "indexed": false,
          "internalType": "string",
          "name": "buildingId",
          "type": "string"
        },
        {
          "indexed": false,
          "internalType": "string",
          "name": "name",
          "type": "string"
        },
        {
          "indexed": false,
          "internalType": "uint256",
          "name": "maxSupply",
          "type": "uint256"
        },
        {
          "indexed": false,
          "internalType": "uint256",
          "name": "mintPrice",
          "type": "uint256"
        }
      ],
      "name": "CollectionCreated",
      "type": "event"
    },
    {
      "anonymous": false,
      "inputs": [
        {
          "indexed": true,
          "internalType": "address",
          "name": "to",
          "type": "address"
        },
        {
          "indexed": false,
          "internalType": "uint256",
          "name": "amount",
          "type": "uint256"
        }
      ],
      "name": "FeesWithdrawn",
      "type": "event"
    },
    {
      "anonymous": false,
      "inputs": [
        {
          "indexed": false,
          "internalType": "uint256",
          "name": "_tokenId",
          "type": "uint256"
        }
      ],
      "name": "MetadataUpdate",
      "type": "event"
    },
    {
      "anonymous": false,
      "inputs": [
        {
          "indexed": true,
          "internalType": "uint256",
          "name": "tokenId",
          "type": "uint256"
        },
        {
          "indexed": true,
          "internalType": "address",
          "name": "seller",
          "type": "address"
        },
        {
          "indexed": false,
          "internalType": "uint256",
          "name": "price",
          "type": "uint256"
        }
      ],
      "name": "NFTListed",
      "type": "event"
    },
    {
      "anonymous": false,
      "inputs": [
        {
          "indexed": true,
          "internalType": "uint256",
          "name": "tokenId",
          "type": "uint256"
        },
        {
          "indexed": true,
          "internalType": "address",
          "name": "to",
          "type": "address"
        },
        {
          "indexed": false,
          "internalType": "string",
          "name": "buildingId",
          "type": "string"
        },
        {
          "indexed": false,
          "internalType": "string",
          "name": "tokenURI",
          "type": "string"
        }
      ],
      "name": "NFTMinted",
      "type": "event"
    },
    {
      "anonymous": false,
      "inputs": [
        {
          "indexed": true,
          "internalType": "uint256",
          "name": "tokenId",
          "type": "uint256"
        },
        {
          "indexed": true,
          "internalType": "address",
          "name": "from",
          "type": "address"
        },
        {
          "indexed": true,
          "internalType": "address",
          "name": "to",
          "type": "address"
        },
        {
          "indexed": false,
          "internalType": "uint256",
          "name": "price",
          "type": "uint256"
        }
      ],
      "name": "NFTSold",
      "type": "event"
    },
    {
      "anonymous": false,
      "inputs": [
        {
          "indexed": true,
          "internalType": "uint256",
          "name": "tokenId",
          "type": "uint256"
        }
      ],
      "name": "NFTUnlisted",
      "type": "event"
    },
    {
      "anonymous": false,
      "inputs": [
        {
          "indexed": true,
          "internalType": "address",
          "name": "previousOwner",
          "type": "address"
        },
        {
          "indexed": true,
          "internalType": "address",
          "name": "newOwner",
          "type": "address"
        }
      ],
      "name": "OwnershipTransferred",
      "type": "event"
    },
    {
      "anonymous": false,
      "inputs": [
        {
          "indexed": true,
          "internalType": "address",
          "name": "from",
          "type": "address"
        },
        {
          "indexed": true,
          "internalType": "address",
          "name": "to",
          "type": "address"
        },
        {
          "indexed": true,
          "internalType": "uint256",
          "name": "tokenId",
          "type": "uint256"
        }
      ],
      "name": "Transfer",
      "type": "event"
    },
    {
      "inputs": [],
      "name": "MAX_BPS",
      "outputs": [
        {
          "internalType": "uint256",
          "name": "",
          "type": "uint256"
        }
      ],
      "stateMutability": "view",
      "type": "function"
    },
    {
      "inputs": [],
      "name": "PLATFORM_FEE_BPS",
      "outputs": [
        {
          "internalType": "uint256",
          "name": "",
          "type": "uint256"
        }
      ],
      "stateMutability": "view",
      "type": "function"
    },
    {
      "inputs": [],
      "name": "accumulatedFees",
      "outputs": [
        {
          "internalType": "uint256",
          "name": "",
          "type": "uint256"
        }
      ],
      "stateMutability": "view",
      "type": "function"
    },
    {
      "inputs": [
        {
          "internalType": "address",
          "name": "to",
          "type": "address"
        },
        {
          "internalType": "uint256",
          "name": "tokenId",
          "type": "uint256"
        }
      ],
      "name": "approve",
      "outputs": [],
      "stateMutability": "nonpayable",
      "type": "function"
    },
    {
      "inputs": [
        {
          "internalType": "uint256",
          "name": "",
          "type": "uint256"
        }
      ],
      "name": "auctions",
      "outputs": [
        {
          "internalType": "uint256",
          "name": "tokenId",
          "type": "uint256"
        },
        {
          "internalType": "address",
          "name": "seller",
          "type": "address"
        },
        {
          "internalType": "uint256",
          "name": "minBid",
          "type": "uint256"
        },
        {
          "internalType": "uint256",
          "name": "highestBid",
          "type": "uint256"
        },
        {
          "internalType": "address",
          "name": "highestBidder",
          "type": "address"
        },
        {
          "internalType": "uint256",
          "name": "endsAt",
          "type": "uint256"
        },
        {
          "internalType": "bool",
          "name": "active",
          "type": "bool"
        }
      ],
      "stateMutability": "view",
      "type": "function"
    },
    {
      "inputs": [
        {
          "internalType": "address",
          "name": "owner",
          "type": "address"
        }
      ],
      "name": "balanceOf",
      "outputs": [
        {
          "internalType": "uint256",
          "name": "",
          "type": "uint256"
        }
      ],
      "stateMutability": "view",
      "type": "function"
    },
    {
      "inputs": [
        {
          "internalType": "uint256",
          "name": "tokenId",
          "type": "uint256"
        }
      ],
      "name": "buyNFT",
      "outputs": [],
      "stateMutability": "payable",
      "type": "function"
    },
    {
      "inputs": [
        {
          "internalType": "string",
          "name": "",
          "type": "string"
        }
      ],
      "name": "collections",
      "outputs": [
        {
          "internalType": "string",
          "name": "buildingId",
          "type": "string"
        },
        {
          "internalType": "string",
          "name": "name",
          "type": "string"
        },
        {
          "internalType": "uint256",
          "name": "maxSupply",
          "type": "uint256"
        },
        {
          "internalType": "uint256",
          "name": "minted",
          "type": "uint256"
        },
        {
          "internalType": "uint256",
          "name": "mintPrice",
          "type": "uint256"
        },
        {
          "internalType": "bool",
          "name": "active",
          "type": "bool"
        }
      ],
      "stateMutability": "view",
      "type": "function"
    },
    {
      "inputs": [
        {
          "internalType": "string",
          "name": "buildingId",
          "type": "string"
        },
        {
          "internalType": "string",
          "name": "name",
          "type": "string"
        },
        {
          "internalType": "uint256",
          "name": "maxSupply",
          "type": "uint256"
        },
        {
          "internalType": "uint256",
          "name": "mintPrice",
          "type": "uint256"
        }
      ],
      "name": "createCollection",
      "outputs": [],
      "stateMutability": "nonpayable",
      "type": "function"
    },
    {
      "inputs": [
        {
          "internalType": "uint256",
          "name": "tokenId",
          "type": "uint256"
        }
      ],
      "name": "endAuction",
      "outputs": [],
      "stateMutability": "nonpayable",
      "type": "function"
    },
    {
      "inputs": [
        {
          "internalType": "uint256",
          "name": "tokenId",
          "type": "uint256"
        }
      ],
      "name": "getApproved",
      "outputs": [
        {
          "internalType": "address",
          "name": "",
          "type": "address"
        }
      ],
      "stateMutability": "view",
      "type": "function"
    },
    {
      "inputs": [
        {
          "internalType": "uint256",
          "name": "tokenId",
          "type": "uint256"
        }
      ],
      "name": "getAuction",
      "outputs": [
        {
          "components": [
            {
              "internalType": "uint256",
              "name": "tokenId",
              "type": "uint256"
            },
            {
              "internalType": "address",
              "name": "seller",
              "type": "address"
            },
            {
              "internalType": "uint256",
              "name": "minBid",
              "type": "uint256"
            },
            {
              "internalType": "uint256",
              "name": "highestBid",
              "type": "uint256"
            },
            {
              "internalType": "address",
              "name": "highestBidder",
              "type": "address"
            },
            {
              "internalType": "uint256",
              "name": "endsAt",
              "type": "uint256"
            },
            {
              "internalType": "bool",
              "name": "active",
              "type": "bool"
            }
          ],
          "internalType": "struct CSUFCampusNFT.Auction",
          "name": "",
          "type": "tuple"
        }
      ],
      "stateMutability": "view",
      "type": "function"
    },
    {
      "inputs": [
        {
          "internalType": "string",
          "name": "buildingId",
          "type": "string"
        }
      ],
      "name": "getCollection",
      "outputs": [
        {
          "components": [
            {
              "internalType": "string",
              "name": "buildingId",
              "type": "string"
            },
            {
              "internalType": "string",
              "name": "name",
              "type": "string"
            },
            {
              "internalType": "uint256",
              "name": "maxSupply",
              "type": "uint256"
            },
            {
              "internalType": "uint256",
              "name": "minted",
              "type": "uint256"
            },
            {
              "internalType": "uint256",
              "name": "mintPrice",
              "type": "uint256"
            },
            {
              "internalType": "bool",
              "name": "active",
              "type": "bool"
            }
          ],
          "internalType": "struct CSUFCampusNFT.BuildingCollection",
          "name": "",
          "type": "tuple"
        }
      ],
      "stateMutability": "view",
      "type": "function"
    },
    {
      "inputs": [
        {
          "internalType": "uint256",
          "name": "tokenId",
          "type": "uint256"
        }
      ],
      "name": "getListing",
      "outputs": [
        {
          "components": [
            {
              "internalType": "uint256",
              "name": "tokenId",
              "type": "uint256"
            },
            {
              "internalType": "address",
              "name": "seller",
              "type": "address"
            },
            {
              "internalType": "uint256",
              "name": "price",
              "type": "uint256"
            },
            {
              "internalType": "string",
              "name": "buildingId",
              "type": "string"
            },
            {
              "internalType": "bool",
              "name": "active",
              "type": "bool"
            }
          ],
          "internalType": "struct CSUFCampusNFT.NFTListing",
          "name": "",
          "type": "tuple"
        }
      ],
      "stateMutability": "view",
      "type": "function"
    },
    {
      "inputs": [
        {
          "internalType": "address",
          "name": "owner",
          "type": "address"
        },
        {
          "internalType": "address",
          "name": "operator",
          "type": "address"
        }
      ],
      "name": "isApprovedForAll",
      "outputs": [
        {
          "internalType": "bool",
          "name": "",
          "type": "bool"
        }
      ],
      "stateMutability": "view",
      "type": "function"
    },
    {
      "inputs": [
        {
          "internalType": "uint256",
          "name": "tokenId",
          "type": "uint256"
        },
        {
          "internalType": "uint256",
          "name": "price",
          "type": "uint256"
        }
      ],
      "name": "listNFT",
      "outputs": [],
      "stateMutability": "nonpayable",
      "type": "function"
    },
    {
      "inputs": [
        {
          "internalType": "uint256",
          "name": "",
          "type": "uint256"
        }
      ],
      "name": "listings",
      "outputs": [
        {
          "internalType": "uint256",
          "name": "tokenId",
          "type": "uint256"
        },
        {
          "internalType": "address",
          "name": "seller",
          "type": "address"
        },
        {
          "internalType": "uint256",
          "name": "price",
          "type": "uint256"
        },
        {
          "internalType": "string",
          "name": "buildingId",
          "type": "string"
        },
        {
          "internalType": "bool",
          "name": "active",
          "type": "bool"
        }
      ],
      "stateMutability": "view",
      "type": "function"
    },
    {
      "inputs": [
        {
          "internalType": "string",
          "name": "buildingId",
          "type": "string"
        },
        {
          "internalType": "string",
          "name": "uri",
          "type": "string"
        }
      ],
      "name": "mint",
      "outputs": [
        {
          "internalType": "uint256",
          "name": "",
          "type": "uint256"
        }
      ],
      "stateMutability": "payable",
      "type": "function"
    },
    {
      "inputs": [],
      "name": "name",
      "outputs": [
        {
          "internalType": "string",
          "name": "",
          "type": "string"
        }
      ],
      "stateMutability": "view",
      "type": "function"
    },
    {
      "inputs": [],
      "name": "owner",
      "outputs": [
        {
          "internalType": "address",
          "name": "",
          "type": "address"
        }
      ],
      "stateMutability": "view",
      "type": "function"
    },
    {
      "inputs": [
        {
          "internalType": "uint256",
          "name": "tokenId",
          "type": "uint256"
        }
      ],
      "name": "ownerOf",
      "outputs": [
        {
          "internalType": "address",
          "name": "",
          "type": "address"
        }
      ],
      "stateMutability": "view",
      "type": "function"
    },
    {
      "inputs": [
        {
          "internalType": "uint256",
          "name": "tokenId",
          "type": "uint256"
        }
      ],
      "name": "placeBid",
      "outputs": [],
      "stateMutability": "payable",
      "type": "function"
    },
    {
      "inputs": [],
      "name": "renounceOwnership",
      "outputs": [],
      "stateMutability": "nonpayable",
      "type": "function"
    },
    {
      "inputs": [
        {
          "internalType": "address",
          "name": "from",
          "type": "address"
        },
        {
          "internalType": "address",
          "name": "to",
          "type": "address"
        },
        {
          "internalType": "uint256",
          "name": "tokenId",
          "type": "uint256"
        }
      ],
      "name": "safeTransferFrom",
      "outputs": [],
      "stateMutability": "nonpayable",
      "type": "function"
    },
    {
      "inputs": [
        {
          "internalType": "address",
          "name": "from",
          "type": "address"
        },
        {
          "internalType": "address",
          "name": "to",
          "type": "address"
        },
        {
          "internalType": "uint256",
          "name": "tokenId",
          "type": "uint256"
        },
        {
          "internalType": "bytes",
          "name": "data",
          "type": "bytes"
        }
      ],
      "name": "safeTransferFrom",
      "outputs": [],
      "stateMutability": "nonpayable",
      "type": "function"
    },
    {
      "inputs": [
        {
          "internalType": "address",
          "name": "operator",
          "type": "address"
        },
        {
          "internalType": "bool",
          "name": "approved",
          "type": "bool"
        }
      ],
      "name": "setApprovalForAll",
      "outputs": [],
      "stateMutability": "nonpayable",
      "type": "function"
    },
    {
      "inputs": [
        {
          "internalType": "uint256",
          "name": "tokenId",
          "type": "uint256"
        },
        {
          "internalType": "uint256",
          "name": "minBid",
          "type": "uint256"
        },
        {
          "internalType": "uint256",
          "name": "duration",
          "type": "uint256"
        }
      ],
      "name": "startAuction",
      "outputs": [],
      "stateMutability": "nonpayable",
      "type": "function"
    },
    {
      "inputs": [
        {
          "internalType": "bytes4",
          "name": "interfaceId",
          "type": "bytes4"
        }
      ],
      "name": "supportsInterface",
      "outputs": [
        {
          "internalType": "bool",
          "name": "",
          "type": "bool"
        }
      ],
      "stateMutability": "view",
      "type": "function"
    },
    {
      "inputs": [],
      "name": "symbol",
      "outputs": [
        {
          "internalType": "string",
          "name": "",
          "type": "string"
        }
      ],
      "stateMutability": "view",
      "type": "function"
    },
    {
      "inputs": [
        {
          "internalType": "uint256",
          "name": "",
          "type": "uint256"
        }
      ],
      "name": "tokenBuilding",
      "outputs": [
        {
          "internalType": "string",
          "name": "",
          "type": "string"
        }
      ],
      "stateMutability": "view",
      "type": "function"
    },
    {
      "inputs": [
        {
          "internalType": "uint256",
          "name": "tokenId",
          "type": "uint256"
        }
      ],
      "name": "tokenURI",
      "outputs": [
        {
          "internalType": "string",
          "name": "",
          "type": "string"
        }
      ],
      "stateMutability": "view",
      "type": "function"
    },
    {
      "inputs": [],
      "name": "totalMinted",
      "outputs": [
        {
          "internalType": "uint256",
          "name": "",
          "type": "uint256"
        }
      ],
      "stateMutability": "view",
      "type": "function"
    },
    {
      "inputs": [
        {
          "internalType": "address",
          "name": "from",
          "type": "address"
        },
        {
          "internalType": "address",
          "name": "to",
          "type": "address"
        },
        {
          "internalType": "uint256",
          "name": "tokenId",
          "type": "uint256"
        }
      ],
      "name": "transferFrom",
      "outputs": [],
      "stateMutability": "nonpayable",
      "type": "function"
    },
    {
      "inputs": [
        {
          "internalType": "address",
          "name": "newOwner",
          "type": "address"
        }
      ],
      "name": "transferOwnership",
      "outputs": [],
      "stateMutability": "nonpayable",
      "type": "function"
    },
    {
      "inputs": [
        {
          "internalType": "uint256",
          "name": "tokenId",
          "type": "uint256"
        }
      ],
      "name": "unlistNFT",
      "outputs": [],
      "stateMutability": "nonpayable",
      "type": "function"
    },
    {
      "inputs": [],
      "name": "withdrawFees",
      "outputs": [],
      "stateMutability": "nonpayable",
      "type": "function"
    },
    {
      "stateMutability": "payable",
      "type": "receive"
    }
  ],
  "bytecode": "0x60806040523480156200001157600080fd5b50336040518060400160405280600f81526020016e10d4d5518810d85b5c1d5cc8139195608a1b8152506040518060400160405280600781526020016610d4d55193919560ca1b81525081600090816200006c9190620001c0565b5060016200007b8282620001c0565b5050506001600160a01b038116620000ad57604051631e4fbdf760e01b81526000600482015260240160405180910390fd5b620000b881620000c9565b50600160085560006009556200028c565b600780546001600160a01b038381166001600160a01b0319831681179093556040519116919082907f8be0079c531659141344cd1fd0a4f28419497f9722a3daafe3b4186f6b6457e090600090a35050565b634e487b7160e01b600052604160045260246000fd5b600181811c908216806200014657607f821691505b6020821081036200016757634e487b7160e01b600052602260045260246000fd5b50919050565b601f821115620001bb57600081815260208120601f850160051c81016020861015620001965750805b601f850160051c820191505b81811015620001b757828155600101620001a2565b5050505b505050565b81516001600160401b03811115620001dc57620001dc6200011b565b620001f481620001ed845462000131565b846200016d565b602080601f8311600181146200022c5760008415620002135750858301515b600019600386901b1c1916600185901b178555620001b7565b600085815260208120601f198616915b828110156200025d578886015182559484019460019091019084016200023c565b50858210156200027c5787850151600019600388901b60f8161c191681555b5050505050600190811b01905550565b6136dd806200029c6000396000f3fe6080604052600436106102135760003560e01c806378bd793511610118578063a2309ff8116100a0578063c87b56dd1161006f578063c87b56dd146106f1578063de74e57b14610711578063e985e9c514610742578063f2fde38b14610762578063fd967f471461078257600080fd5b8063a2309ff81461067c578063b79bef4a14610691578063b88d4fde146106b1578063b9a2de3a146106d157600080fd5b806394383f14116100e757806394383f14146105f457806395d89b4114610614578063961f0944146106295780639979ef4514610649578063a22cb4651461065c57600080fd5b806378bd79351461051d5780638aa0fdad146105a35780638da5cb5b146105b657806391e078bb146105d457600080fd5b8063476343ee1161019b578063587f5ed71161016a578063587f5ed7146104805780636352211e1461049657806366e54d7b146104b657806370a08231146104e8578063715018a61461050857600080fd5b8063476343ee1461038a57806351ed82881461039f578063539aa77f146103b2578063571a26a0146103d557600080fd5b80630ff79b33116101e25780630ff79b33146102d0578063107a274a146102fd57806323b872dd1461032a5780633d01883d1461034a57806342842e0e1461036a57600080fd5b806301ffc9a71461021f57806306fdde0314610254578063081812fc14610276578063095ea7b3146102ae57600080fd5b3661021a57005b600080fd5b34801561022b57600080fd5b5061023f61023a366004612ccf565b610798565b60405190151581526020015b60405180910390f35b34801561026057600080fd5b506102696107c3565b60405161024b9190612d3c565b34801561028257600080fd5b50610296610291366004612d4f565b610855565b6040516001600160a01b03909116815260200161024b565b3480156102ba57600080fd5b506102ce6102c9366004612d84565b61087e565b005b3480156102dc57600080fd5b506102f06102eb366004612df7565b61088d565b60405161024b9190612e39565b34801561030957600080fd5b5061031d610318366004612d4f565b610a4c565b60405161024b9190612ea9565b34801561033657600080fd5b506102ce610345366004612f03565b610b60565b34801561035657600080fd5b50610269610365366004612d4f565b610bf0565b34801561037657600080fd5b506102ce610385366004612f03565b610c8a565b34801561039657600080fd5b506102ce610caa565b6102ce6103ad366004612d4f565b610d51565b3480156103be57600080fd5b506103c760fa81565b60405190815260200161024b565b3480156103e157600080fd5b5061043c6103f0366004612d4f565b600b60205260009081526040902080546001820154600283015460038401546004850154600586015460069096015494956001600160a01b039485169593949293929091169160ff1687565b604080519788526001600160a01b0396871660208901528701949094526060860192909252909216608084015260a0830191909152151560c082015260e00161024b565b34801561048c57600080fd5b506103c7600e5481565b3480156104a257600080fd5b506102966104b1366004612d4f565b610f8f565b3480156104c257600080fd5b506104d66104d1366004612fcb565b610f9a565b60405161024b96959493929190613014565b3480156104f457600080fd5b506103c7610503366004613061565b6110ed565b34801561051457600080fd5b506102ce611135565b34801561052957600080fd5b5061053d610538366004612d4f565b611149565b60405161024b9190600060e08201905082518252602083015160018060a01b0380821660208501526040850151604085015260608501516060850152806080860151166080850152505060a083015160a083015260c0830151151560c083015292915050565b6103c76105b136600461307c565b611211565b3480156105c257600080fd5b506007546001600160a01b0316610296565b3480156105e057600080fd5b506102ce6105ef3660046130e8565b611468565b34801561060057600080fd5b506102ce61060f366004613114565b611772565b34801561062057600080fd5b506102696119da565b34801561063557600080fd5b506102ce610644366004612d4f565b6119e9565b6102ce610657366004612d4f565b611ac7565b34801561066857600080fd5b506102ce610677366004613136565b611cd5565b34801561068857600080fd5b506009546103c7565b34801561069d57600080fd5b506102ce6106ac366004613172565b611ce0565b3480156106bd57600080fd5b506102ce6106cc3660046131f0565b611ef6565b3480156106dd57600080fd5b506102ce6106ec366004612d4f565b611f0d565b3480156106fd57600080fd5b5061026961070c366004612d4f565b61211c565b34801561071d57600080fd5b5061073161072c366004612d4f565b612225565b60405161024b95949392919061326c565b34801561074e57600080fd5b5061023f61075d3660046132ad565b6122eb565b34801561076e57600080fd5b506102ce61077d366004613061565b612319565b34801561078e57600080fd5b506103c761271081565b60006001600160e01b03198216632483248360e11b14806107bd57506107bd82612354565b92915050565b6060600080546107d2906132e0565b80601f01602080910402602001604051908101604052809291908181526020018280546107fe906132e0565b801561084b5780601f106108205761010080835404028352916020019161084b565b820191906000526020600020905b81548152906001019060200180831161082e57829003601f168201915b5050505050905090565b6000610860826123a4565b506000828152600460205260409020546001600160a01b03166107bd565b6108898282336123dd565b5050565b6108c86040518060c0016040528060608152602001606081526020016000815260200160008152602001600081526020016000151581525090565b600c83836040516108da92919061331a565b90815260200160405180910390206040518060c0016040529081600082018054610903906132e0565b80601f016020809104026020016040519081016040528092919081815260200182805461092f906132e0565b801561097c5780601f106109515761010080835404028352916020019161097c565b820191906000526020600020905b81548152906001019060200180831161095f57829003601f168201915b50505050508152602001600182018054610995906132e0565b80601f01602080910402602001604051908101604052809291908181526020018280546109c1906132e0565b8015610a0e5780601f106109e357610100808354040283529160200191610a0e565b820191906000526020600020905b8154815290600101906020018083116109f157829003601f168201915b505050918352505060028201546020820152600382015460408201526004820154606082015260059091015460ff1615156080909101529392505050565b6040805160a0808201835260008083526020808401829052838501829052606080850181905260808501839052868352600a825291859020855193840186528054845260018101546001600160a01b0316918401919091526002810154948301949094526003840180549394929391840191610ac7906132e0565b80601f0160208091040260200160405190810160405280929190818152602001828054610af3906132e0565b8015610b405780601f10610b1557610100808354040283529160200191610b40565b820191906000526020600020905b815481529060010190602001808311610b2357829003601f168201915b50505091835250506004919091015460ff16151560209091015292915050565b6001600160a01b038216610b8f57604051633250574960e11b8152600060048201526024015b60405180910390fd5b6000610b9c8383336123ea565b9050836001600160a01b0316816001600160a01b031614610bea576040516364283d7b60e01b81526001600160a01b0380861660048301526024820184905282166044820152606401610b86565b50505050565b600d6020526000908152604090208054610c09906132e0565b80601f0160208091040260200160405190810160405280929190818152602001828054610c35906132e0565b8015610c825780601f10610c5757610100808354040283529160200191610c82565b820191906000526020600020905b815481529060010190602001808311610c6557829003601f168201915b505050505081565b610ca583838360405180602001604052806000815250611ef6565b505050565b610cb26124e3565b600e805460009091556007546001600160a01b03166001600160a01b03166108fc829081150290604051600060405180830381858888f19350505050158015610cff573d6000803e3d6000fd5b506007546001600160a01b03166001600160a01b03167fc0819c13be868895eb93e40eaceb96de976442fa1d404e5c55f14bb65a8c489a82604051610d4691815260200190565b60405180910390a250565b610d59612510565b6000818152600a60205260409020600481015460ff16610da85760405162461bcd60e51b815260206004820152600a602482015269139bdd081b1a5cdd195960b21b6044820152606401610b86565b8060020154341015610df35760405162461bcd60e51b8152602060048201526014602482015273125b9cdd59999a58da595b9d081c185e5b595b9d60621b6044820152606401610b86565b60018101546001600160a01b03163303610e445760405162461bcd60e51b815260206004820152601260248201527110d85b9b9bdd08189d5e481bdddb8813919560721b6044820152606401610b86565b600061271060fa8360020154610e5a9190613340565b610e649190613357565b90506000818360020154610e789190613379565b60048401805460ff19169055600e80549192508391600090610e9b90849061338c565b90915550610eac905030338661253a565b60018301546040516001600160a01b039091169082156108fc029083906000818181858888f19350505050158015610ee8573d6000803e3d6000fd5b508260020154341115610f3457600283015433906108fc90610f0a9034613379565b6040518115909202916000818181858888f19350505050158015610f32573d6000803e3d6000fd5b505b6001830154600284015460405190815233916001600160a01b03169086907f8562eb94748e30bb0071e932744ce902b460c683474fcb3bfd567ffa16b1afb29060200160405180910390a4505050610f8c6001600855565b50565b60006107bd826123a4565b8051602081830181018051600c82529282019190930120915280548190610fc0906132e0565b80601f0160208091040260200160405190810160405280929190818152602001828054610fec906132e0565b80156110395780601f1061100e57610100808354040283529160200191611039565b820191906000526020600020905b81548152906001019060200180831161101c57829003601f168201915b50505050509080600101805461104e906132e0565b80601f016020809104026020016040519081016040528092919081815260200182805461107a906132e0565b80156110c75780601f1061109c576101008083540402835291602001916110c7565b820191906000526020600020905b8154815290600101906020018083116110aa57829003601f168201915b505050506002830154600384015460048501546005909501549394919390925060ff1686565b60006001600160a01b038216611119576040516322718ad960e21b815260006004820152602401610b86565b506001600160a01b031660009081526003602052604090205490565b61113d6124e3565b61114760006125ea565b565b61119d6040518060e001604052806000815260200160006001600160a01b03168152602001600081526020016000815260200160006001600160a01b03168152602001600081526020016000151581525090565b506000908152600b6020908152604091829020825160e0810184528154815260018201546001600160a01b03908116938201939093526002820154938101939093526003810154606084015260048101549091166080830152600581015460a08301526006015460ff16151560c082015290565b600061121b612510565b6000600c868660405161122f92919061331a565b908152604051908190036020019020600581015490915060ff1661128d5760405162461bcd60e51b8152602060048201526015602482015274436f6c6c656374696f6e206e6f742061637469766560581b6044820152606401610b86565b80600201548160030154106112d95760405162461bcd60e51b815260206004820152601260248201527113585e081cdd5c1c1b1e481c995858da195960721b6044820152606401610b86565b80600401543410156113245760405162461bcd60e51b8152602060048201526014602482015273125b9cdd59999a58da595b9d081c185e5b595b9d60621b6044820152606401610b86565b600061132e61263c565b905061133a338261265e565b61137a8186868080601f01602080910402602001604051908101604052809392919081815260200183838082843760009201919091525061267892505050565b6000818152600d602052604090206113938789836133ed565b506003820180549060006113a6836134ad565b919050555081600401543411156113f657600482015433906108fc906113cc9034613379565b6040518115909202916000818181858888f193505050501580156113f4573d6000803e3d6000fd5b505b8160040154600e600082825461140c919061338c565b9091555050604051339082907f0372de3fa001ec655fcb2f8096e13cb1f68d1b8b9bb9d2674fc7d880de7e80459061144b908b908b908b908b906134ef565b60405180910390a39150506114606001600855565b949350505050565b3361147284610f8f565b6001600160a01b0316146114b45760405162461bcd60e51b81526020600482015260096024820152682737ba1037bbb732b960b91b6044820152606401610b86565b6000838152600b602052604090206006015460ff161561150f5760405162461bcd60e51b815260206004820152601660248201527541756374696f6e20616c72656164792061637469766560501b6044820152606401610b86565b6000838152600a602052604090206004015460ff161561156a5760405162461bcd60e51b8152602060048201526016602482015275151bdad95b8818dd5c9c995b9d1b1e481b1a5cdd195960521b6044820152606401610b86565b600082116115b05760405162461bcd60e51b815260206004820152601360248201527204d696e20626964206d757374206265203e203606c1b6044820152606401610b86565b610e1081101580156115c5575062278d008111155b6116045760405162461bcd60e51b815260206004820152601060248201526f24b73b30b634b210323ab930ba34b7b760811b6044820152606401610b86565b61160f333085610b60565b600061161b824261338c565b90506040518060e00160405280858152602001336001600160a01b031681526020018481526020016000815260200160006001600160a01b0316815260200182815260200160011515815250600b60008681526020019081526020016000206000820151816000015560208201518160010160006101000a8154816001600160a01b0302191690836001600160a01b03160217905550604082015181600201556060820151816003015560808201518160040160006101000a8154816001600160a01b0302191690836001600160a01b0316021790555060a0820151816005015560c08201518160060160006101000a81548160ff021916908315150217905550905050336001600160a01b0316847fbf6dc7bdf2f23af5a506fe03ee1221f47d023a2227fbc949c6b812ae44534e6d8584604051611764929190918252602082015260400190565b60405180910390a350505050565b3361177c83610f8f565b6001600160a01b0316146117be5760405162461bcd60e51b81526020600482015260096024820152682737ba1037bbb732b960b91b6044820152606401610b86565b600081116118025760405162461bcd60e51b815260206004820152601160248201527005072696365206d757374206265203e203607c1b6044820152606401610b86565b6000828152600a602052604090206004015460ff16156118555760405162461bcd60e51b815260206004820152600e60248201526d105b1c9958591e481b1a5cdd195960921b6044820152606401610b86565b611860333084610b60565b6040518060a00160405280838152602001336001600160a01b03168152602001828152602001600d600085815260200190815260200160002080546118a4906132e0565b80601f01602080910402602001604051908101604052809291908181526020018280546118d0906132e0565b801561191d5780601f106118f25761010080835404028352916020019161191d565b820191906000526020600020905b81548152906001019060200180831161190057829003601f168201915b5050509183525050600160209182018190526000858152600a8352604090819020845181559284015191830180546001600160a01b0319166001600160a01b03909316929092179091558201516002820155606082015160038201906119839082613521565b50608091909101516004909101805460ff1916911515919091179055604051818152339083907f5f9c03de076f5063cd3ebcfe8ef7aa8af378e4b35a83c77ba9777e97083879a29060200160405180910390a35050565b6060600180546107d2906132e0565b6000818152600a60205260409020600481015460ff16611a385760405162461bcd60e51b815260206004820152600a602482015269139bdd081b1a5cdd195960b21b6044820152606401610b86565b60018101546001600160a01b03163314611a815760405162461bcd60e51b815260206004820152600a6024820152692737ba1039b2b63632b960b11b6044820152606401610b86565b60048101805460ff19169055611a9830338461253a565b60405182907fcd14eb7ebf273ed59a9fd1cf8651f3f40d9a04355b3511376f0d17b37ba224ff90600090a25050565b611acf612510565b6000818152600b60205260409020600681015460ff16611b255760405162461bcd60e51b815260206004820152601160248201527027379030b1ba34bb329030bab1ba34b7b760791b6044820152606401610b86565b80600501544210611b685760405162461bcd60e51b815260206004820152600d60248201526c105d58dd1a5bdb88195b991959609a1b6044820152606401610b86565b60018101546001600160a01b03163303611bb85760405162461bcd60e51b815260206004820152601160248201527014d95b1b195c8818d85b9b9bdd08189a59607a1b6044820152606401610b86565b600080826003015411611bcf578160020154611bdf565b6003820154611bdf90600161338c565b905080341015611c1f5760405162461bcd60e51b815260206004820152600b60248201526a42696420746f6f206c6f7760a81b6044820152606401610b86565b60048201546001600160a01b031615611c7457600482015460038301546040516001600160a01b039092169181156108fc0291906000818181858888f19350505050158015611c72573d6000803e3d6000fd5b505b34600383018190556004830180546001600160a01b031916339081179091556040519182529084907f0e54eff26401bf69b81b26f60bd85ef47f5d85275c1d268d84f68d6897431c479060200160405180910390a35050610f8c6001600855565b6108893383836126c8565b611ce86124e3565b84611d2a5760405162461bcd60e51b8152602060048201526012602482015271125b9d985b1a5908189d5a5b191a5b99d25960721b6044820152606401610b86565b600c8686604051611d3c92919061331a565b908152602001604051809103902060020154600014611d915760405162461bcd60e51b8152602060048201526011602482015270436f6c6c656374696f6e2065786973747360781b6044820152606401610b86565b6040518060c0016040528087878080601f016020809104026020016040519081016040528093929190818152602001838380828437600092019190915250505090825250604080516020601f88018190048102820181019092528681529181019190879087908190840183828082843760009201829052509385525050506020820185905260408083019190915260608201849052600160809092019190915251600c90611e42908990899061331a565b90815260405190819003602001902081518190611e5f9082613521565b5060208201516001820190611e749082613521565b506040828101516002830155606083015160038301556080830151600483015560a0909201516005909101805460ff1916911515919091179055517f1b17f9bcb560c475f8d70e321e2e434bdafbb042521219a20b3d3a278f6a97ba90611ee6908890889088908890889088906135e1565b60405180910390a1505050505050565b611f01848484610b60565b610bea84848484612767565b611f15612510565b6000818152600b60205260409020600681015460ff16611f6b5760405162461bcd60e51b815260206004820152601160248201527027379030b1ba34bb329030bab1ba34b7b760791b6044820152606401610b86565b8060050154421015611fb75760405162461bcd60e51b815260206004820152601560248201527441756374696f6e207374696c6c2072756e6e696e6760581b6044820152606401610b86565b60068101805460ff1916905560048101546001600160a01b031661201f576001810154611fef9030906001600160a01b03168461253a565b60405182907f2809c7e17bf978fbc7194c0a694b638c4215e9140cacc6c38ca36010b45697df90600090a2612111565b60048101546120399030906001600160a01b03168461253a565b600061271060fa836003015461204f9190613340565b6120599190613357565b9050600081836003015461206d9190613379565b905081600e6000828254612081919061338c565b909155505060018301546040516001600160a01b039091169082156108fc029083906000818181858888f193505050501580156120c2573d6000803e3d6000fd5b50600483015460038401546040519081526001600160a01b039091169085907fd2aa34a4fdbbc6dff6a3e56f46e0f3ae2a31d7785ff3487aa5c95c642acea5019060200160405180910390a350505b50610f8c6001600855565b6060612127826123a4565b5060008281526006602052604081208054612141906132e0565b80601f016020809104026020016040519081016040528092919081815260200182805461216d906132e0565b80156121ba5780601f1061218f576101008083540402835291602001916121ba565b820191906000526020600020905b81548152906001019060200180831161219d57829003601f168201915b5050505050905060006121d860408051602081019091526000815290565b905080516000036121ea575092915050565b81511561221c57808260405160200161220492919061361e565b60405160208183030381529060405292505050919050565b61146084612890565b600a60205260009081526040902080546001820154600283015460038401805493946001600160a01b039093169391929161225f906132e0565b80601f016020809104026020016040519081016040528092919081815260200182805461228b906132e0565b80156122d85780601f106122ad576101008083540402835291602001916122d8565b820191906000526020600020905b8154815290600101906020018083116122bb57829003601f168201915b5050506004909301549192505060ff1685565b6001600160a01b03918216600090815260056020908152604080832093909416825291909152205460ff1690565b6123216124e3565b6001600160a01b03811661234b57604051631e4fbdf760e01b815260006004820152602401610b86565b610f8c816125ea565b60006001600160e01b031982166380ac58cd60e01b148061238557506001600160e01b03198216635b5e139f60e01b145b806107bd57506301ffc9a760e01b6001600160e01b03198316146107bd565b6000818152600260205260408120546001600160a01b0316806107bd57604051637e27328960e01b815260048101849052602401610b86565b610ca58383836001612905565b6000828152600260205260408120546001600160a01b039081169083161561241757612417818486612a0b565b6001600160a01b0381161561245557612434600085600080612905565b6001600160a01b038116600090815260036020526040902080546000190190555b6001600160a01b03851615612484576001600160a01b0385166000908152600360205260409020805460010190555b60008481526002602052604080822080546001600160a01b0319166001600160a01b0389811691821790925591518793918516917fddf252ad1be2c89b69c2b068fc378daa952ba7f163c4a11628f55a4df523b3ef91a4949350505050565b6007546001600160a01b031633146111475760405163118cdaa760e01b8152336004820152602401610b86565b60026008540361253357604051633ee5aeb560e01b815260040160405180910390fd5b6002600855565b6001600160a01b03821661256457604051633250574960e11b815260006004820152602401610b86565b6000612572838360006123ea565b90506001600160a01b03811661259e57604051637e27328960e01b815260048101839052602401610b86565b836001600160a01b0316816001600160a01b031614610bea576040516364283d7b60e01b81526001600160a01b0380861660048301526024820184905282166044820152606401610b86565b600780546001600160a01b038381166001600160a01b0319831681179093556040519116919082907f8be0079c531659141344cd1fd0a4f28419497f9722a3daafe3b4186f6b6457e090600090a35050565b6000600160096000828254612651919061338c565b9091555050600954919050565b610889828260405180602001604052806000815250612a6f565b60008281526006602052604090206126908282613521565b506040518281527ff8e1a15aba9398e019f0b49df1a4fde98ee17ae345cb5f6b5e2c27f5033e8ce79060200160405180910390a15050565b6001600160a01b0382166126fa57604051630b61174360e31b81526001600160a01b0383166004820152602401610b86565b6001600160a01b03838116600081815260056020908152604080832094871680845294825291829020805460ff191686151590811790915591519182527f17307eab39ab6107e8899845ad3d59bd9653f200f220920489ca2b5937696c31910160405180910390a3505050565b6001600160a01b0383163b15610bea57604051630a85bd0160e11b81526001600160a01b0384169063150b7a02906127a990339088908790879060040161364d565b6020604051808303816000875af19250505080156127e4575060408051601f3d908101601f191682019092526127e19181019061368a565b60015b61284d573d808015612812576040519150601f19603f3d011682016040523d82523d6000602084013e612817565b606091505b50805160000361284557604051633250574960e11b81526001600160a01b0385166004820152602401610b86565b805181602001fd5b6001600160e01b03198116630a85bd0160e11b1461288957604051633250574960e11b81526001600160a01b0385166004820152602401610b86565b5050505050565b606061289b826123a4565b5060006128b360408051602081019091526000815290565b905060008151116128d357604051806020016040528060008152506128fe565b806128dd84612a86565b6040516020016128ee92919061361e565b6040516020818303038152906040525b9392505050565b808061291957506001600160a01b03821615155b156129db576000612929846123a4565b90506001600160a01b038316158015906129555750826001600160a01b0316816001600160a01b031614155b8015612968575061296681846122eb565b155b156129915760405163a9fbf51f60e01b81526001600160a01b0384166004820152602401610b86565b81156129d95783856001600160a01b0316826001600160a01b03167f8c5be1e5ebec7d5bd14f71427d1e84f3dd0314c0f7b2291e5b200ac8c7c3b92560405160405180910390a45b505b5050600090815260046020526040902080546001600160a01b0319166001600160a01b0392909216919091179055565b612a16838383612b19565b610ca5576001600160a01b038316612a4457604051637e27328960e01b815260048101829052602401610b86565b60405163177e802f60e01b81526001600160a01b038316600482015260248101829052604401610b86565b612a798383612b7c565b610ca56000848484612767565b60606000612a9383612be1565b600101905060008167ffffffffffffffff811115612ab357612ab3612f3f565b6040519080825280601f01601f191660200182016040528015612add576020820181803683370190505b5090508181016020015b600019016f181899199a1a9b1b9c1cb0b131b232b360811b600a86061a8153600a8504945084612ae757509392505050565b60006001600160a01b038316158015906114605750826001600160a01b0316846001600160a01b03161480612b535750612b5384846122eb565b806114605750506000908152600460205260409020546001600160a01b03908116911614919050565b6001600160a01b038216612ba657604051633250574960e11b815260006004820152602401610b86565b6000612bb4838360006123ea565b90506001600160a01b03811615610ca5576040516339e3563760e11b815260006004820152602401610b86565b60008072184f03e93ff9f4daa797ed6e38ed64bf6a1f0160401b8310612c205772184f03e93ff9f4daa797ed6e38ed64bf6a1f0160401b830492506040015b6d04ee2d6d415b85acef81000000008310612c4c576d04ee2d6d415b85acef8100000000830492506020015b662386f26fc100008310612c6a57662386f26fc10000830492506010015b6305f5e1008310612c82576305f5e100830492506008015b6127108310612c9657612710830492506004015b60648310612ca8576064830492506002015b600a83106107bd5760010192915050565b6001600160e01b031981168114610f8c57600080fd5b600060208284031215612ce157600080fd5b81356128fe81612cb9565b60005b83811015612d07578181015183820152602001612cef565b50506000910152565b60008151808452612d28816020860160208601612cec565b601f01601f19169290920160200192915050565b6020815260006128fe6020830184612d10565b600060208284031215612d6157600080fd5b5035919050565b80356001600160a01b0381168114612d7f57600080fd5b919050565b60008060408385031215612d9757600080fd5b612da083612d68565b946020939093013593505050565b60008083601f840112612dc057600080fd5b50813567ffffffffffffffff811115612dd857600080fd5b602083019150836020828501011115612df057600080fd5b9250929050565b60008060208385031215612e0a57600080fd5b823567ffffffffffffffff811115612e2157600080fd5b612e2d85828601612dae565b90969095509350505050565b602081526000825160c06020840152612e5560e0840182612d10565b90506020840151601f19848303016040850152612e728282612d10565b9150506040840151606084015260608401516080840152608084015160a084015260a0840151151560c08401528091505092915050565b602081528151602082015260018060a01b036020830151166040820152604082015160608201526000606083015160a06080840152612eeb60c0840182612d10565b90506080840151151560a08401528091505092915050565b600080600060608486031215612f1857600080fd5b612f2184612d68565b9250612f2f60208501612d68565b9150604084013590509250925092565b634e487b7160e01b600052604160045260246000fd5b600067ffffffffffffffff80841115612f7057612f70612f3f565b604051601f8501601f19908116603f01168101908282118183101715612f9857612f98612f3f565b81604052809350858152868686011115612fb157600080fd5b858560208301376000602087830101525050509392505050565b600060208284031215612fdd57600080fd5b813567ffffffffffffffff811115612ff457600080fd5b8201601f8101841361300557600080fd5b61146084823560208401612f55565b60c08152600061302760c0830189612d10565b82810360208401526130398189612d10565b91505085604083015284606083015283608083015282151560a0830152979650505050505050565b60006020828403121561307357600080fd5b6128fe82612d68565b6000806000806040858703121561309257600080fd5b843567ffffffffffffffff808211156130aa57600080fd5b6130b688838901612dae565b909650945060208701359150808211156130cf57600080fd5b506130dc87828801612dae565b95989497509550505050565b6000806000606084860312156130fd57600080fd5b505081359360208301359350604090920135919050565b6000806040838503121561312757600080fd5b50508035926020909101359150565b6000806040838503121561314957600080fd5b61315283612d68565b91506020830135801515811461316757600080fd5b809150509250929050565b6000806000806000806080878903121561318b57600080fd5b863567ffffffffffffffff808211156131a357600080fd5b6131af8a838b01612dae565b909850965060208901359150808211156131c857600080fd5b506131d589828a01612dae565b979a9699509760408101359660609091013595509350505050565b6000806000806080858703121561320657600080fd5b61320f85612d68565b935061321d60208601612d68565b925060408501359150606085013567ffffffffffffffff81111561324057600080fd5b8501601f8101871361325157600080fd5b61326087823560208401612f55565b91505092959194509250565b85815260018060a01b038516602082015283604082015260a06060820152600061329960a0830185612d10565b905082151560808301529695505050505050565b600080604083850312156132c057600080fd5b6132c983612d68565b91506132d760208401612d68565b90509250929050565b600181811c908216806132f457607f821691505b60208210810361331457634e487b7160e01b600052602260045260246000fd5b50919050565b8183823760009101908152919050565b634e487b7160e01b600052601160045260246000fd5b80820281158282048414176107bd576107bd61332a565b60008261337457634e487b7160e01b600052601260045260246000fd5b500490565b818103818111156107bd576107bd61332a565b808201808211156107bd576107bd61332a565b601f821115610ca557600081815260208120601f850160051c810160208610156133c65750805b601f850160051c820191505b818110156133e5578281556001016133d2565b505050505050565b67ffffffffffffffff83111561340557613405612f3f565b6134198361341383546132e0565b8361339f565b6000601f84116001811461344d57600085156134355750838201355b600019600387901b1c1916600186901b178355612889565b600083815260209020601f19861690835b8281101561347e578685013582556020948501946001909201910161345e565b508682101561349b5760001960f88860031b161c19848701351681555b505060018560011b0183555050505050565b6000600182016134bf576134bf61332a565b5060010190565b81835281816020850137506000828201602090810191909152601f909101601f19169091010190565b6040815260006135036040830186886134c6565b82810360208401526135168185876134c6565b979650505050505050565b815167ffffffffffffffff81111561353b5761353b612f3f565b61354f8161354984546132e0565b8461339f565b602080601f831160018114613584576000841561356c5750858301515b600019600386901b1c1916600185901b1785556133e5565b600085815260208120601f198616915b828110156135b357888601518255948401946001909101908401613594565b50858210156135d15787850151600019600388901b60f8161c191681555b5050505050600190811b01905550565b6080815260006135f560808301888a6134c6565b82810360208401526136088187896134c6565b6040840195909552505060600152949350505050565b60008351613630818460208801612cec565b835190830190613644818360208801612cec565b01949350505050565b6001600160a01b038581168252841660208201526040810183905260806060820181905260009061368090830184612d10565b9695505050505050565b60006020828403121561369c57600080fd5b81516128fe81612cb956fea2646970667358221220f7033b35fd59f78d23687ea4f5b6bf65a5b995cc40f047b9139045d3602fa20364736f6c63430008140033",
  "linkReferences": {},
  "deployedLinkReferences": {}
}